{
  "_format": "hh-sol-artifact-1",
  "contractName": "CryptogramMarket",
  "sourceName": "contracts/CryptogramMarket.sol",
  "abi": [
    {
      "inputs": [],
      "stateMutability": "nonpayable",
      "type": "constructor"
    },
    {
      "anonymous": false,
      "inputs": [
        {
          "indexed": true,
          "internalType": "address",
          "name": "owner",
          "type": "address"
        },
        {
          "indexed": true,
          "internalType": "address",
          "name": "approved",
          "type": "address"
        },
        {
          "indexed": true,
          "internalType": "uint256",
          "name": "tokenId",
          "type": "uint256"
        }
      ],
      "name": "Approval",
      "type": "event"
    },
    {
      "anonymous": false,
      "inputs": [
        {
          "indexed": true,
          "internalType": "address",
          "name": "owner",
          "type": "address"
        },
        {
          "indexed": true,
          "internalType": "address",
          "name": "operator",
          "type": "address"
        },
        {
          "indexed": false,
          "internalType": "bool",
          "name": "approved",
          "type": "bool"
        }
      ],
      "name": "ApprovalForAll",
      "type": "event"
    },
    {
      "anonymous": false,
      "inputs": [
        {
          "indexed": false,
          "internalType": "uint256",
          "name": "tokenID",
          "type": "uint256"
        },
        {
          "indexed": false,
          "internalType": "address",
          "name": "from",
          "type": "address"
        },
        {
          "indexed": false,
          "internalType": "address",
          "name": "to",
          "type": "address"
        },
        {
          "indexed": false,
          "internalType": "string",
          "name": "tokenURI",
          "type": "string"
        },
        {
          "indexed": false,
          "internalType": "uint256",
          "name": "price",
          "type": "uint256"
        }
      ],
      "name": "NFTTransfer",
      "type": "event"
    },
    {
      "anonymous": false,
      "inputs": [
        {
          "indexed": true,
          "internalType": "address",
          "name": "previousOwner",
          "type": "address"
        },
        {
          "indexed": true,
          "internalType": "address",
          "name": "newOwner",
          "type": "address"
        }
      ],
      "name": "OwnershipTransferred",
      "type": "event"
    },
    {
      "anonymous": false,
      "inputs": [
        {
          "indexed": true,
          "internalType": "address",
          "name": "from",
          "type": "address"
        },
        {
          "indexed": true,
          "internalType": "address",
          "name": "to",
          "type": "address"
        },
        {
          "indexed": true,
          "internalType": "uint256",
          "name": "tokenId",
          "type": "uint256"
        }
      ],
      "name": "Transfer",
      "type": "event"
    },
    {
      "inputs": [
        {
          "internalType": "address",
          "name": "to",
          "type": "address"
        },
        {
          "internalType": "uint256",
          "name": "tokenId",
          "type": "uint256"
        }
      ],
      "name": "approve",
      "outputs": [],
      "stateMutability": "nonpayable",
      "type": "function"
    },
    {
      "inputs": [
        {
          "internalType": "address",
          "name": "owner",
          "type": "address"
        }
      ],
      "name": "balanceOf",
      "outputs": [
        {
          "internalType": "uint256",
          "name": "",
          "type": "uint256"
        }
      ],
      "stateMutability": "view",
      "type": "function"
    },
    {
      "inputs": [
        {
          "internalType": "uint256",
          "name": "tokenID",
          "type": "uint256"
        }
      ],
      "name": "buyNFT",
      "outputs": [],
      "stateMutability": "payable",
      "type": "function"
    },
    {
      "inputs": [
        {
          "internalType": "uint256",
          "name": "tokenID",
          "type": "uint256"
        }
      ],
      "name": "cancelListing",
      "outputs": [],
      "stateMutability": "nonpayable",
      "type": "function"
    },
    {
      "inputs": [
        {
          "internalType": "string",
          "name": "tokenURI",
          "type": "string"
        }
      ],
      "name": "createNFT",
      "outputs": [],
      "stateMutability": "nonpayable",
      "type": "function"
    },
    {
      "inputs": [
        {
          "internalType": "uint256",
          "name": "tokenId",
          "type": "uint256"
        }
      ],
      "name": "getApproved",
      "outputs": [
        {
          "internalType": "address",
          "name": "",
          "type": "address"
        }
      ],
      "stateMutability": "view",
      "type": "function"
    },
    {
      "inputs": [
        {
          "internalType": "address",
          "name": "owner",
          "type": "address"
        },
        {
          "internalType": "address",
          "name": "operator",
          "type": "address"
        }
      ],
      "name": "isApprovedForAll",
      "outputs": [
        {
          "internalType": "bool",
          "name": "",
          "type": "bool"
        }
      ],
      "stateMutability": "view",
      "type": "function"
    },
    {
      "inputs": [
        {
          "internalType": "uint256",
          "name": "tokenID",
          "type": "uint256"
        },
        {
          "internalType": "uint256",
          "name": "price",
          "type": "uint256"
        }
      ],
      "name": "listNFT",
      "outputs": [],
      "stateMutability": "nonpayable",
      "type": "function"
    },
    {
      "inputs": [],
      "name": "name",
      "outputs": [
        {
          "internalType": "string",
          "name": "",
          "type": "string"
        }
      ],
      "stateMutability": "view",
      "type": "function"
    },
    {
      "inputs": [],
      "name": "owner",
      "outputs": [
        {
          "internalType": "address",
          "name": "",
          "type": "address"
        }
      ],
      "stateMutability": "view",
      "type": "function"
    },
    {
      "inputs": [
        {
          "internalType": "uint256",
          "name": "tokenId",
          "type": "uint256"
        }
      ],
      "name": "ownerOf",
      "outputs": [
        {
          "internalType": "address",
          "name": "",
          "type": "address"
        }
      ],
      "stateMutability": "view",
      "type": "function"
    },
    {
      "inputs": [],
      "name": "renounceOwnership",
      "outputs": [],
      "stateMutability": "nonpayable",
      "type": "function"
    },
    {
      "inputs": [
        {
          "internalType": "address",
          "name": "from",
          "type": "address"
        },
        {
          "internalType": "address",
          "name": "to",
          "type": "address"
        },
        {
          "internalType": "uint256",
          "name": "tokenId",
          "type": "uint256"
        }
      ],
      "name": "safeTransferFrom",
      "outputs": [],
      "stateMutability": "nonpayable",
      "type": "function"
    },
    {
      "inputs": [
        {
          "internalType": "address",
          "name": "from",
          "type": "address"
        },
        {
          "internalType": "address",
          "name": "to",
          "type": "address"
        },
        {
          "internalType": "uint256",
          "name": "tokenId",
          "type": "uint256"
        },
        {
          "internalType": "bytes",
          "name": "_data",
          "type": "bytes"
        }
      ],
      "name": "safeTransferFrom",
      "outputs": [],
      "stateMutability": "nonpayable",
      "type": "function"
    },
    {
      "inputs": [
        {
          "internalType": "address",
          "name": "operator",
          "type": "address"
        },
        {
          "internalType": "bool",
          "name": "approved",
          "type": "bool"
        }
      ],
      "name": "setApprovalForAll",
      "outputs": [],
      "stateMutability": "nonpayable",
      "type": "function"
    },
    {
      "inputs": [
        {
          "internalType": "bytes4",
          "name": "interfaceId",
          "type": "bytes4"
        }
      ],
      "name": "supportsInterface",
      "outputs": [
        {
          "internalType": "bool",
          "name": "",
          "type": "bool"
        }
      ],
      "stateMutability": "view",
      "type": "function"
    },
    {
      "inputs": [],
      "name": "symbol",
      "outputs": [
        {
          "internalType": "string",
          "name": "",
          "type": "string"
        }
      ],
      "stateMutability": "view",
      "type": "function"
    },
    {
      "inputs": [
        {
          "internalType": "uint256",
          "name": "tokenId",
          "type": "uint256"
        }
      ],
      "name": "tokenURI",
      "outputs": [
        {
          "internalType": "string",
          "name": "",
          "type": "string"
        }
      ],
      "stateMutability": "view",
      "type": "function"
    },
    {
      "inputs": [
        {
          "internalType": "address",
          "name": "from",
          "type": "address"
        },
        {
          "internalType": "address",
          "name": "to",
          "type": "address"
        },
        {
          "internalType": "uint256",
          "name": "tokenId",
          "type": "uint256"
        }
      ],
      "name": "transferFrom",
      "outputs": [],
      "stateMutability": "nonpayable",
      "type": "function"
    },
    {
      "inputs": [
        {
          "internalType": "address",
          "name": "newOwner",
          "type": "address"
        }
      ],
      "name": "transferOwnership",
      "outputs": [],
      "stateMutability": "nonpayable",
      "type": "function"
    },
    {
      "inputs": [],
      "name": "withdrawFunds",
      "outputs": [],
      "stateMutability": "nonpayable",
      "type": "function"
    }
  ],
  "bytecode": "0x60806040523480156200001157600080fd5b506040518060400160405280601681526020017f43727970746f6772616d204d61726b6574706c616365000000000000000000008152506040518060400160405280600381526020017f43474d0000000000000000000000000000000000000000000000000000000000815250816000908051906020019062000096929190620001a6565b508060019080519060200190620000af929190620001a6565b505050620000d2620000c6620000d860201b60201c565b620000e060201b60201c565b620002bb565b600033905090565b6000600760009054906101000a900473ffffffffffffffffffffffffffffffffffffffff16905081600760006101000a81548173ffffffffffffffffffffffffffffffffffffffff021916908373ffffffffffffffffffffffffffffffffffffffff1602179055508173ffffffffffffffffffffffffffffffffffffffff168173ffffffffffffffffffffffffffffffffffffffff167f8be0079c531659141344cd1fd0a4f28419497f9722a3daafe3b4186f6b6457e060405160405180910390a35050565b828054620001b49062000285565b90600052602060002090601f016020900481019282620001d8576000855562000224565b82601f10620001f357805160ff191683800117855562000224565b8280016001018555821562000224579182015b828111156200022357825182559160200191906001019062000206565b5b50905062000233919062000237565b5090565b5b808211156200025257600081600090555060010162000238565b5090565b7f4e487b7100000000000000000000000000000000000000000000000000000000600052602260045260246000fd5b600060028204905060018216806200029e57607f821691505b60208210811415620002b557620002b462000256565b5b50919050565b613d6180620002cb6000396000f3fe60806040526004361061012a5760003560e01c806370a08231116100ab578063a22cb4651161006f578063a22cb465146103bb578063b88d4fde146103e4578063c87b56dd1461040d578063da2ed03e1461044a578063e985e9c514610473578063f2fde38b146104b05761012a565b806370a08231146102e8578063715018a6146103255780638da5cb5b1461033c57806394383f141461036757806395d89b41146103905761012a565b806324600fc3116100f257806324600fc314610226578063305a67a81461023d57806342842e0e1461026657806351ed82881461028f5780636352211e146102ab5761012a565b806301ffc9a71461012f57806306fdde031461016c578063081812fc14610197578063095ea7b3146101d457806323b872dd146101fd575b600080fd5b34801561013b57600080fd5b5061015660048036038101906101519190612538565b6104d9565b6040516101639190612580565b60405180910390f35b34801561017857600080fd5b506101816105bb565b60405161018e9190612634565b60405180910390f35b3480156101a357600080fd5b506101be60048036038101906101b9919061268c565b61064d565b6040516101cb91906126fa565b60405180910390f35b3480156101e057600080fd5b506101fb60048036038101906101f69190612741565b6106d2565b005b34801561020957600080fd5b50610224600480360381019061021f9190612781565b6107ea565b005b34801561023257600080fd5b5061023b61084a565b005b34801561024957600080fd5b50610264600480360381019061025f919061268c565b610958565b005b34801561027257600080fd5b5061028d60048036038101906102889190612781565b610b4d565b005b6102a960048036038101906102a4919061268c565b610b6d565b005b3480156102b757600080fd5b506102d260048036038101906102cd919061268c565b610dad565b6040516102df91906126fa565b60405180910390f35b3480156102f457600080fd5b5061030f600480360381019061030a91906127d4565b610e5f565b60405161031c9190612810565b60405180910390f35b34801561033157600080fd5b5061033a610f17565b005b34801561034857600080fd5b50610351610f9f565b60405161035e91906126fa565b60405180910390f35b34801561037357600080fd5b5061038e6004803603810190610389919061282b565b610fc9565b005b34801561039c57600080fd5b506103a56110ea565b6040516103b29190612634565b60405180910390f35b3480156103c757600080fd5b506103e260048036038101906103dd9190612897565b61117c565b005b3480156103f057600080fd5b5061040b60048036038101906104069190612a0c565b611192565b005b34801561041957600080fd5b50610434600480360381019061042f919061268c565b6111f4565b6040516104419190612634565b60405180910390f35b34801561045657600080fd5b50610471600480360381019061046c9190612aef565b611346565b005b34801561047f57600080fd5b5061049a60048036038101906104959190612b3c565b6113fe565b6040516104a79190612580565b60405180910390f35b3480156104bc57600080fd5b506104d760048036038101906104d291906127d4565b611492565b005b60007f80ac58cd000000000000000000000000000000000000000000000000000000007bffffffffffffffffffffffffffffffffffffffffffffffffffffffff1916827bffffffffffffffffffffffffffffffffffffffffffffffffffffffff191614806105a457507f5b5e139f000000000000000000000000000000000000000000000000000000007bffffffffffffffffffffffffffffffffffffffffffffffffffffffff1916827bffffffffffffffffffffffffffffffffffffffffffffffffffffffff1916145b806105b457506105b38261158a565b5b9050919050565b6060600080546105ca90612bab565b80601f01602080910402602001604051908101604052809291908181526020018280546105f690612bab565b80156106435780601f1061061857610100808354040283529160200191610643565b820191906000526020600020905b81548152906001019060200180831161062657829003601f168201915b5050505050905090565b6000610658826115f4565b610697576040517f08c379a000000000000000000000000000000000000000000000000000000000815260040161068e90612c4f565b60405180910390fd5b6004600083815260200190815260200160002060009054906101000a900473ffffffffffffffffffffffffffffffffffffffff169050919050565b60006106dd82610dad565b90508073ffffffffffffffffffffffffffffffffffffffff168373ffffffffffffffffffffffffffffffffffffffff16141561074e576040517f08c379a000000000000000000000000000000000000000000000000000000000815260040161074590612ce1565b60405180910390fd5b8073ffffffffffffffffffffffffffffffffffffffff1661076d611660565b73ffffffffffffffffffffffffffffffffffffffff16148061079c575061079b81610796611660565b6113fe565b5b6107db576040517f08c379a00000000000000000000000000000000000000000000000000000000081526004016107d290612d73565b60405180910390fd5b6107e58383611668565b505050565b6107fb6107f5611660565b82611721565b61083a576040517f08c379a000000000000000000000000000000000000000000000000000000000815260040161083190612e05565b60405180910390fd5b6108458383836117ff565b505050565b610852611660565b73ffffffffffffffffffffffffffffffffffffffff16610870610f9f565b73ffffffffffffffffffffffffffffffffffffffff16146108c6576040517f08c379a00000000000000000000000000000000000000000000000000000000081526004016108bd90612e71565b60405180910390fd5b60004790506000811161090e576040517f08c379a000000000000000000000000000000000000000000000000000000000815260040161090590612edd565b60405180910390fd5b3373ffffffffffffffffffffffffffffffffffffffff166108fc829081150290604051600060405180830381858888f19350505050158015610954573d6000803e3d6000fd5b5050565b600060096000838152602001908152602001600020604051806040016040529081600082015481526020016001820160009054906101000a900473ffffffffffffffffffffffffffffffffffffffff1673ffffffffffffffffffffffffffffffffffffffff1673ffffffffffffffffffffffffffffffffffffffff168152505090506000816000015111610a21576040517f08c379a0000000000000000000000000000000000000000000000000000000008152600401610a1890612f6f565b60405180910390fd5b3373ffffffffffffffffffffffffffffffffffffffff16816020015173ffffffffffffffffffffffffffffffffffffffff1614610a93576040517f08c379a0000000000000000000000000000000000000000000000000000000008152600401610a8a90612fdb565b60405180910390fd5b3073ffffffffffffffffffffffffffffffffffffffff166323b872dd3033856040518463ffffffff1660e01b8152600401610ad093929190612ffb565b600060405180830381600087803b158015610aea57600080fd5b505af1158015610afe573d6000803e3d6000fd5b50505050610b0b82611a5b565b7f705332a8918666802fc1504f63ff1f002a5f6cedd30d59ad7ae0b5281aeb8dca8230336000604051610b41949392919061309d565b60405180910390a15050565b610b6883838360405180602001604052806000815250611192565b505050565b600060096000838152602001908152602001600020604051806040016040529081600082015481526020016001820160009054906101000a900473ffffffffffffffffffffffffffffffffffffffff1673ffffffffffffffffffffffffffffffffffffffff1673ffffffffffffffffffffffffffffffffffffffff168152505090506000816000015111610c36576040517f08c379a0000000000000000000000000000000000000000000000000000000008152600401610c2d90612f6f565b60405180910390fd5b80600001513414610c7c576040517f08c379a0000000000000000000000000000000000000000000000000000000008152600401610c7390613141565b60405180910390fd5b3073ffffffffffffffffffffffffffffffffffffffff166323b872dd3033856040518463ffffffff1660e01b8152600401610cb993929190612ffb565b600060405180830381600087803b158015610cd357600080fd5b505af1158015610ce7573d6000803e3d6000fd5b50505050610cf482611a5b565b806020015173ffffffffffffffffffffffffffffffffffffffff166108fc610d3f612710610d316103e78660000151611ad090919063ffffffff16565b611ae690919063ffffffff16565b9081150290604051600060405180830381858888f19350505050158015610d6a573d6000803e3d6000fd5b507f705332a8918666802fc1504f63ff1f002a5f6cedd30d59ad7ae0b5281aeb8dca8230336000604051610da1949392919061309d565b60405180910390a15050565b6000806002600084815260200190815260200160002060009054906101000a900473ffffffffffffffffffffffffffffffffffffffff169050600073ffffffffffffffffffffffffffffffffffffffff168173ffffffffffffffffffffffffffffffffffffffff161415610e56576040517f08c379a0000000000000000000000000000000000000000000000000000000008152600401610e4d906131d3565b60405180910390fd5b80915050919050565b60008073ffffffffffffffffffffffffffffffffffffffff168273ffffffffffffffffffffffffffffffffffffffff161415610ed0576040517f08c379a0000000000000000000000000000000000000000000000000000000008152600401610ec790613265565b60405180910390fd5b600360008373ffffffffffffffffffffffffffffffffffffffff1673ffffffffffffffffffffffffffffffffffffffff168152602001908152602001600020549050919050565b610f1f611660565b73ffffffffffffffffffffffffffffffffffffffff16610f3d610f9f565b73ffffffffffffffffffffffffffffffffffffffff1614610f93576040517f08c379a0000000000000000000000000000000000000000000000000000000008152600401610f8a90612e71565b60405180910390fd5b610f9d6000611afc565b565b6000600760009054906101000a900473ffffffffffffffffffffffffffffffffffffffff16905090565b6000811161100c576040517f08c379a0000000000000000000000000000000000000000000000000000000008152600401611003906132f7565b60405180910390fd5b6110173330846107ea565b60405180604001604052808281526020013373ffffffffffffffffffffffffffffffffffffffff16815250600960008481526020019081526020016000206000820151816000015560208201518160010160006101000a81548173ffffffffffffffffffffffffffffffffffffffff021916908373ffffffffffffffffffffffffffffffffffffffff1602179055509050507f705332a8918666802fc1504f63ff1f002a5f6cedd30d59ad7ae0b5281aeb8dca823330846040516110de9493929190613317565b60405180910390a15050565b6060600180546110f990612bab565b80601f016020809104026020016040519081016040528092919081815260200182805461112590612bab565b80156111725780601f1061114757610100808354040283529160200191611172565b820191906000526020600020905b81548152906001019060200180831161115557829003601f168201915b5050505050905090565b61118e611187611660565b8383611bc2565b5050565b6111a361119d611660565b83611721565b6111e2576040517f08c379a00000000000000000000000000000000000000000000000000000000081526004016111d990612e05565b60405180910390fd5b6111ee84848484611d2f565b50505050565b60606111ff826115f4565b61123e576040517f08c379a0000000000000000000000000000000000000000000000000000000008152600401611235906133e1565b60405180910390fd5b600060066000848152602001908152602001600020805461125e90612bab565b80601f016020809104026020016040519081016040528092919081815260200182805461128a90612bab565b80156112d75780601f106112ac576101008083540402835291602001916112d7565b820191906000526020600020905b8154815290600101906020018083116112ba57829003601f168201915b5050505050905060006112e8611d8b565b90506000815114156112fe578192505050611341565b60008251111561133357808260405160200161131b92919061343d565b60405160208183030381529060405292505050611341565b61133c84611da2565b925050505b919050565b6113506008611e49565b600061135c6008611e5f565b90506113683382611e6d565b6113b68184848080601f016020809104026020016040519081016040528093929190818152602001838380828437600081840152601f19601f82011690508083019250505050505050611e8b565b7f705332a8918666802fc1504f63ff1f002a5f6cedd30d59ad7ae0b5281aeb8dca81600033868660006040516113f19695949392919061348e565b60405180910390a1505050565b6000600560008473ffffffffffffffffffffffffffffffffffffffff1673ffffffffffffffffffffffffffffffffffffffff16815260200190815260200160002060008373ffffffffffffffffffffffffffffffffffffffff1673ffffffffffffffffffffffffffffffffffffffff16815260200190815260200160002060009054906101000a900460ff16905092915050565b61149a611660565b73ffffffffffffffffffffffffffffffffffffffff166114b8610f9f565b73ffffffffffffffffffffffffffffffffffffffff161461150e576040517f08c379a000000000000000000000000000000000000000000000000000000000815260040161150590612e71565b60405180910390fd5b600073ffffffffffffffffffffffffffffffffffffffff168173ffffffffffffffffffffffffffffffffffffffff16141561157e576040517f08c379a00000000000000000000000000000000000000000000000000000000081526004016115759061355c565b60405180910390fd5b61158781611afc565b50565b60007f01ffc9a7000000000000000000000000000000000000000000000000000000007bffffffffffffffffffffffffffffffffffffffffffffffffffffffff1916827bffffffffffffffffffffffffffffffffffffffffffffffffffffffff1916149050919050565b60008073ffffffffffffffffffffffffffffffffffffffff166002600084815260200190815260200160002060009054906101000a900473ffffffffffffffffffffffffffffffffffffffff1673ffffffffffffffffffffffffffffffffffffffff1614159050919050565b600033905090565b816004600083815260200190815260200160002060006101000a81548173ffffffffffffffffffffffffffffffffffffffff021916908373ffffffffffffffffffffffffffffffffffffffff160217905550808273ffffffffffffffffffffffffffffffffffffffff166116db83610dad565b73ffffffffffffffffffffffffffffffffffffffff167f8c5be1e5ebec7d5bd14f71427d1e84f3dd0314c0f7b2291e5b200ac8c7c3b92560405160405180910390a45050565b600061172c826115f4565b61176b576040517f08c379a0000000000000000000000000000000000000000000000000000000008152600401611762906135ee565b60405180910390fd5b600061177683610dad565b90508073ffffffffffffffffffffffffffffffffffffffff168473ffffffffffffffffffffffffffffffffffffffff1614806117e557508373ffffffffffffffffffffffffffffffffffffffff166117cd8461064d565b73ffffffffffffffffffffffffffffffffffffffff16145b806117f657506117f581856113fe565b5b91505092915050565b8273ffffffffffffffffffffffffffffffffffffffff1661181f82610dad565b73ffffffffffffffffffffffffffffffffffffffff1614611875576040517f08c379a000000000000000000000000000000000000000000000000000000000815260040161186c90613680565b60405180910390fd5b600073ffffffffffffffffffffffffffffffffffffffff168273ffffffffffffffffffffffffffffffffffffffff1614156118e5576040517f08c379a00000000000000000000000000000000000000000000000000000000081526004016118dc90613712565b60405180910390fd5b6118f0838383611eff565b6118fb600082611668565b6001600360008573ffffffffffffffffffffffffffffffffffffffff1673ffffffffffffffffffffffffffffffffffffffff168152602001908152602001600020600082825461194b9190613761565b925050819055506001600360008473ffffffffffffffffffffffffffffffffffffffff1673ffffffffffffffffffffffffffffffffffffffff16815260200190815260200160002060008282546119a29190613795565b92505081905550816002600083815260200190815260200160002060006101000a81548173ffffffffffffffffffffffffffffffffffffffff021916908373ffffffffffffffffffffffffffffffffffffffff160217905550808273ffffffffffffffffffffffffffffffffffffffff168473ffffffffffffffffffffffffffffffffffffffff167fddf252ad1be2c89b69c2b068fc378daa952ba7f163c4a11628f55a4df523b3ef60405160405180910390a4505050565b6000600960008381526020019081526020016000206000018190555060006009600083815260200190815260200160002060010160006101000a81548173ffffffffffffffffffffffffffffffffffffffff021916908373ffffffffffffffffffffffffffffffffffffffff16021790555050565b60008183611ade91906137eb565b905092915050565b60008183611af49190613874565b905092915050565b6000600760009054906101000a900473ffffffffffffffffffffffffffffffffffffffff16905081600760006101000a81548173ffffffffffffffffffffffffffffffffffffffff021916908373ffffffffffffffffffffffffffffffffffffffff1602179055508173ffffffffffffffffffffffffffffffffffffffff168173ffffffffffffffffffffffffffffffffffffffff167f8be0079c531659141344cd1fd0a4f28419497f9722a3daafe3b4186f6b6457e060405160405180910390a35050565b8173ffffffffffffffffffffffffffffffffffffffff168373ffffffffffffffffffffffffffffffffffffffff161415611c31576040517f08c379a0000000000000000000000000000000000000000000000000000000008152600401611c28906138f1565b60405180910390fd5b80600560008573ffffffffffffffffffffffffffffffffffffffff1673ffffffffffffffffffffffffffffffffffffffff16815260200190815260200160002060008473ffffffffffffffffffffffffffffffffffffffff1673ffffffffffffffffffffffffffffffffffffffff16815260200190815260200160002060006101000a81548160ff0219169083151502179055508173ffffffffffffffffffffffffffffffffffffffff168373ffffffffffffffffffffffffffffffffffffffff167f17307eab39ab6107e8899845ad3d59bd9653f200f220920489ca2b5937696c3183604051611d229190612580565b60405180910390a3505050565b611d3a8484846117ff565b611d4684848484611f04565b611d85576040517f08c379a0000000000000000000000000000000000000000000000000000000008152600401611d7c90613983565b60405180910390fd5b50505050565b606060405180602001604052806000815250905090565b6060611dad826115f4565b611dec576040517f08c379a0000000000000000000000000000000000000000000000000000000008152600401611de390613a15565b60405180910390fd5b6000611df6611d8b565b90506000815111611e165760405180602001604052806000815250611e41565b80611e208461208c565b604051602001611e3192919061343d565b6040516020818303038152906040525b915050919050565b6001816000016000828254019250508190555050565b600081600001549050919050565b611e878282604051806020016040528060008152506121ed565b5050565b611e94826115f4565b611ed3576040517f08c379a0000000000000000000000000000000000000000000000000000000008152600401611eca90613aa7565b60405180910390fd5b80600660008481526020019081526020016000209080519060200190611efa929190612429565b505050565b505050565b6000611f258473ffffffffffffffffffffffffffffffffffffffff16612248565b1561207f578373ffffffffffffffffffffffffffffffffffffffff1663150b7a02611f4e611660565b8786866040518563ffffffff1660e01b8152600401611f709493929190613b1c565b6020604051808303816000875af1925050508015611fac57506040513d601f19601f82011682018060405250810190611fa99190613b7d565b60015b61202f573d8060008114611fdc576040519150601f19603f3d011682016040523d82523d6000602084013e611fe1565b606091505b50600081511415612027576040517f08c379a000000000000000000000000000000000000000000000000000000000815260040161201e90613983565b60405180910390fd5b805181602001fd5b63150b7a0260e01b7bffffffffffffffffffffffffffffffffffffffffffffffffffffffff1916817bffffffffffffffffffffffffffffffffffffffffffffffffffffffff191614915050612084565b600190505b949350505050565b606060008214156120d4576040518060400160405280600181526020017f300000000000000000000000000000000000000000000000000000000000000081525090506121e8565b600082905060005b600082146121065780806120ef90613baa565b915050600a826120ff9190613874565b91506120dc565b60008167ffffffffffffffff811115612122576121216128e1565b5b6040519080825280601f01601f1916602001820160405280156121545781602001600182028036833780820191505090505b5090505b600085146121e15760018261216d9190613761565b9150600a8561217c9190613bf3565b60306121889190613795565b60f81b81838151811061219e5761219d613c24565b5b60200101907effffffffffffffffffffffffffffffffffffffffffffffffffffffffffffff1916908160001a905350600a856121da9190613874565b9450612158565b8093505050505b919050565b6121f7838361225b565b6122046000848484611f04565b612243576040517f08c379a000000000000000000000000000000000000000000000000000000000815260040161223a90613983565b60405180910390fd5b505050565b600080823b905060008111915050919050565b600073ffffffffffffffffffffffffffffffffffffffff168273ffffffffffffffffffffffffffffffffffffffff1614156122cb576040517f08c379a00000000000000000000000000000000000000000000000000000000081526004016122c290613c9f565b60405180910390fd5b6122d4816115f4565b15612314576040517f08c379a000000000000000000000000000000000000000000000000000000000815260040161230b90613d0b565b60405180910390fd5b61232060008383611eff565b6001600360008473ffffffffffffffffffffffffffffffffffffffff1673ffffffffffffffffffffffffffffffffffffffff16815260200190815260200160002060008282546123709190613795565b92505081905550816002600083815260200190815260200160002060006101000a81548173ffffffffffffffffffffffffffffffffffffffff021916908373ffffffffffffffffffffffffffffffffffffffff160217905550808273ffffffffffffffffffffffffffffffffffffffff16600073ffffffffffffffffffffffffffffffffffffffff167fddf252ad1be2c89b69c2b068fc378daa952ba7f163c4a11628f55a4df523b3ef60405160405180910390a45050565b82805461243590612bab565b90600052602060002090601f016020900481019282612457576000855561249e565b82601f1061247057805160ff191683800117855561249e565b8280016001018555821561249e579182015b8281111561249d578251825591602001919060010190612482565b5b5090506124ab91906124af565b5090565b5b808211156124c85760008160009055506001016124b0565b5090565b6000604051905090565b600080fd5b600080fd5b60007fffffffff0000000000000000000000000000000000000000000000000000000082169050919050565b612515816124e0565b811461252057600080fd5b50565b6000813590506125328161250c565b92915050565b60006020828403121561254e5761254d6124d6565b5b600061255c84828501612523565b91505092915050565b60008115159050919050565b61257a81612565565b82525050565b60006020820190506125956000830184612571565b92915050565b600081519050919050565b600082825260208201905092915050565b60005b838110156125d55780820151818401526020810190506125ba565b838111156125e4576000848401525b50505050565b6000601f19601f8301169050919050565b60006126068261259b565b61261081856125a6565b93506126208185602086016125b7565b612629816125ea565b840191505092915050565b6000602082019050818103600083015261264e81846125fb565b905092915050565b6000819050919050565b61266981612656565b811461267457600080fd5b50565b60008135905061268681612660565b92915050565b6000602082840312156126a2576126a16124d6565b5b60006126b084828501612677565b91505092915050565b600073ffffffffffffffffffffffffffffffffffffffff82169050919050565b60006126e4826126b9565b9050919050565b6126f4816126d9565b82525050565b600060208201905061270f60008301846126eb565b92915050565b61271e816126d9565b811461272957600080fd5b50565b60008135905061273b81612715565b92915050565b60008060408385031215612758576127576124d6565b5b60006127668582860161272c565b925050602061277785828601612677565b9150509250929050565b60008060006060848603121561279a576127996124d6565b5b60006127a88682870161272c565b93505060206127b98682870161272c565b92505060406127ca86828701612677565b9150509250925092565b6000602082840312156127ea576127e96124d6565b5b60006127f88482850161272c565b91505092915050565b61280a81612656565b82525050565b60006020820190506128256000830184612801565b92915050565b60008060408385031215612842576128416124d6565b5b600061285085828601612677565b925050602061286185828601612677565b9150509250929050565b61287481612565565b811461287f57600080fd5b50565b6000813590506128918161286b565b92915050565b600080604083850312156128ae576128ad6124d6565b5b60006128bc8582860161272c565b92505060206128cd85828601612882565b9150509250929050565b600080fd5b600080fd5b7f4e487b7100000000000000000000000000000000000000000000000000000000600052604160045260246000fd5b612919826125ea565b810181811067ffffffffffffffff82111715612938576129376128e1565b5b80604052505050565b600061294b6124cc565b90506129578282612910565b919050565b600067ffffffffffffffff821115612977576129766128e1565b5b612980826125ea565b9050602081019050919050565b82818337600083830152505050565b60006129af6129aa8461295c565b612941565b9050828152602081018484840111156129cb576129ca6128dc565b5b6129d684828561298d565b509392505050565b600082601f8301126129f3576129f26128d7565b5b8135612a0384826020860161299c565b91505092915050565b60008060008060808587031215612a2657612a256124d6565b5b6000612a348782880161272c565b9450506020612a458782880161272c565b9350506040612a5687828801612677565b925050606085013567ffffffffffffffff811115612a7757612a766124db565b5b612a83878288016129de565b91505092959194509250565b600080fd5b600080fd5b60008083601f840112612aaf57612aae6128d7565b5b8235905067ffffffffffffffff811115612acc57612acb612a8f565b5b602083019150836001820283011115612ae857612ae7612a94565b5b9250929050565b60008060208385031215612b0657612b056124d6565b5b600083013567ffffffffffffffff811115612b2457612b236124db565b5b612b3085828601612a99565b92509250509250929050565b60008060408385031215612b5357612b526124d6565b5b6000612b618582860161272c565b9250506020612b728582860161272c565b9150509250929050565b7f4e487b7100000000000000000000000000000000000000000000000000000000600052602260045260246000fd5b60006002820490506001821680612bc357607f821691505b60208210811415612bd757612bd6612b7c565b5b50919050565b7f4552433732313a20617070726f76656420717565727920666f72206e6f6e657860008201527f697374656e7420746f6b656e0000000000000000000000000000000000000000602082015250565b6000612c39602c836125a6565b9150612c4482612bdd565b604082019050919050565b60006020820190508181036000830152612c6881612c2c565b9050919050565b7f4552433732313a20617070726f76616c20746f2063757272656e74206f776e6560008201527f7200000000000000000000000000000000000000000000000000000000000000602082015250565b6000612ccb6021836125a6565b9150612cd682612c6f565b604082019050919050565b60006020820190508181036000830152612cfa81612cbe565b9050919050565b7f4552433732313a20617070726f76652063616c6c6572206973206e6f74206f7760008201527f6e6572206e6f7220617070726f76656420666f7220616c6c0000000000000000602082015250565b6000612d5d6038836125a6565b9150612d6882612d01565b604082019050919050565b60006020820190508181036000830152612d8c81612d50565b9050919050565b7f4552433732313a207472616e736665722063616c6c6572206973206e6f74206f60008201527f776e6572206e6f7220617070726f766564000000000000000000000000000000602082015250565b6000612def6031836125a6565b9150612dfa82612d93565b604082019050919050565b60006020820190508181036000830152612e1e81612de2565b9050919050565b7f4f776e61626c653a2063616c6c6572206973206e6f7420746865206f776e6572600082015250565b6000612e5b6020836125a6565b9150612e6682612e25565b602082019050919050565b60006020820190508181036000830152612e8a81612e4e565b9050919050565b7f4e46544d61726b65743a2062616c616e6365206973207a65726f000000000000600082015250565b6000612ec7601a836125a6565b9150612ed282612e91565b602082019050919050565b60006020820190508181036000830152612ef681612eba565b9050919050565b7f4e46544d61726b65743a206e6674206e6f74206c697374656420666f7220736160008201527f6c65000000000000000000000000000000000000000000000000000000000000602082015250565b6000612f596022836125a6565b9150612f6482612efd565b604082019050919050565b60006020820190508181036000830152612f8881612f4c565b9050919050565b7f4e46544d61726b65743a20796f75277265206e6f74207468652073656c6c6572600082015250565b6000612fc56020836125a6565b9150612fd082612f8f565b602082019050919050565b60006020820190508181036000830152612ff481612fb8565b9050919050565b600060608201905061301060008301866126eb565b61301d60208301856126eb565b61302a6040830184612801565b949350505050565b50565b60006130426000836125a6565b915061304d82613032565b600082019050919050565b6000819050919050565b6000819050919050565b600061308761308261307d84613058565b613062565b612656565b9050919050565b6130978161306c565b82525050565b600060a0820190506130b26000830187612801565b6130bf60208301866126eb565b6130cc60408301856126eb565b81810360608301526130dd81613035565b90506130ec608083018461308e565b95945050505050565b7f4e46544d61726b65743a20696e636f7272656374207072696365000000000000600082015250565b600061312b601a836125a6565b9150613136826130f5565b602082019050919050565b6000602082019050818103600083015261315a8161311e565b9050919050565b7f4552433732313a206f776e657220717565727920666f72206e6f6e657869737460008201527f656e7420746f6b656e0000000000000000000000000000000000000000000000602082015250565b60006131bd6029836125a6565b91506131c882613161565b604082019050919050565b600060208201905081810360008301526131ec816131b0565b9050919050565b7f4552433732313a2062616c616e636520717565727920666f7220746865207a6560008201527f726f206164647265737300000000000000000000000000000000000000000000602082015250565b600061324f602a836125a6565b915061325a826131f3565b604082019050919050565b6000602082019050818103600083015261327e81613242565b9050919050565b7f4e46544d61726b65743a207072696365206d757374206265206772656174657260008201527f207468616e203000000000000000000000000000000000000000000000000000602082015250565b60006132e16027836125a6565b91506132ec82613285565b604082019050919050565b60006020820190508181036000830152613310816132d4565b9050919050565b600060a08201905061332c6000830187612801565b61333960208301866126eb565b61334660408301856126eb565b818103606083015261335781613035565b90506133666080830184612801565b95945050505050565b7f45524337323155524953746f726167653a2055524920717565727920666f722060008201527f6e6f6e6578697374656e7420746f6b656e000000000000000000000000000000602082015250565b60006133cb6031836125a6565b91506133d68261336f565b604082019050919050565b600060208201905081810360008301526133fa816133be565b9050919050565b600081905092915050565b60006134178261259b565b6134218185613401565b93506134318185602086016125b7565b80840191505092915050565b6000613449828561340c565b9150613455828461340c565b91508190509392505050565b600061346d83856125a6565b935061347a83858461298d565b613483836125ea565b840190509392505050565b600060a0820190506134a36000830189612801565b6134b060208301886126eb565b6134bd60408301876126eb565b81810360608301526134d0818587613461565b90506134df608083018461308e565b979650505050505050565b7f4f776e61626c653a206e6577206f776e657220697320746865207a65726f206160008201527f6464726573730000000000000000000000000000000000000000000000000000602082015250565b60006135466026836125a6565b9150613551826134ea565b604082019050919050565b6000602082019050818103600083015261357581613539565b9050919050565b7f4552433732313a206f70657261746f7220717565727920666f72206e6f6e657860008201527f697374656e7420746f6b656e0000000000000000000000000000000000000000602082015250565b60006135d8602c836125a6565b91506135e38261357c565b604082019050919050565b60006020820190508181036000830152613607816135cb565b9050919050565b7f4552433732313a207472616e73666572206f6620746f6b656e2074686174206960008201527f73206e6f74206f776e0000000000000000000000000000000000000000000000602082015250565b600061366a6029836125a6565b91506136758261360e565b604082019050919050565b600060208201905081810360008301526136998161365d565b9050919050565b7f4552433732313a207472616e7366657220746f20746865207a65726f2061646460008201527f7265737300000000000000000000000000000000000000000000000000000000602082015250565b60006136fc6024836125a6565b9150613707826136a0565b604082019050919050565b6000602082019050818103600083015261372b816136ef565b9050919050565b7f4e487b7100000000000000000000000000000000000000000000000000000000600052601160045260246000fd5b600061376c82612656565b915061377783612656565b92508282101561378a57613789613732565b5b828203905092915050565b60006137a082612656565b91506137ab83612656565b9250827fffffffffffffffffffffffffffffffffffffffffffffffffffffffffffffffff038211156137e0576137df613732565b5b828201905092915050565b60006137f682612656565b915061380183612656565b9250817fffffffffffffffffffffffffffffffffffffffffffffffffffffffffffffffff048311821515161561383a57613839613732565b5b828202905092915050565b7f4e487b7100000000000000000000000000000000000000000000000000000000600052601260045260246000fd5b600061387f82612656565b915061388a83612656565b92508261389a57613899613845565b5b828204905092915050565b7f4552433732313a20617070726f766520746f2063616c6c657200000000000000600082015250565b60006138db6019836125a6565b91506138e6826138a5565b602082019050919050565b6000602082019050818103600083015261390a816138ce565b9050919050565b7f4552433732313a207472616e7366657220746f206e6f6e20455243373231526560008201527f63656976657220696d706c656d656e7465720000000000000000000000000000602082015250565b600061396d6032836125a6565b915061397882613911565b604082019050919050565b6000602082019050818103600083015261399c81613960565b9050919050565b7f4552433732314d657461646174613a2055524920717565727920666f72206e6f60008201527f6e6578697374656e7420746f6b656e0000000000000000000000000000000000602082015250565b60006139ff602f836125a6565b9150613a0a826139a3565b604082019050919050565b60006020820190508181036000830152613a2e816139f2565b9050919050565b7f45524337323155524953746f726167653a2055524920736574206f66206e6f6e60008201527f6578697374656e7420746f6b656e000000000000000000000000000000000000602082015250565b6000613a91602e836125a6565b9150613a9c82613a35565b604082019050919050565b60006020820190508181036000830152613ac081613a84565b9050919050565b600081519050919050565b600082825260208201905092915050565b6000613aee82613ac7565b613af88185613ad2565b9350613b088185602086016125b7565b613b11816125ea565b840191505092915050565b6000608082019050613b3160008301876126eb565b613b3e60208301866126eb565b613b4b6040830185612801565b8181036060830152613b5d8184613ae3565b905095945050505050565b600081519050613b778161250c565b92915050565b600060208284031215613b9357613b926124d6565b5b6000613ba184828501613b68565b91505092915050565b6000613bb582612656565b91507fffffffffffffffffffffffffffffffffffffffffffffffffffffffffffffffff821415613be857613be7613732565b5b600182019050919050565b6000613bfe82612656565b9150613c0983612656565b925082613c1957613c18613845565b5b828206905092915050565b7f4e487b7100000000000000000000000000000000000000000000000000000000600052603260045260246000fd5b7f4552433732313a206d696e7420746f20746865207a65726f2061646472657373600082015250565b6000613c896020836125a6565b9150613c9482613c53565b602082019050919050565b60006020820190508181036000830152613cb881613c7c565b9050919050565b7f4552433732313a20746f6b656e20616c7265616479206d696e74656400000000600082015250565b6000613cf5601c836125a6565b9150613d0082613cbf565b602082019050919050565b60006020820190508181036000830152613d2481613ce8565b905091905056fea2646970667358221220b2ab95066958e3a1aee973ad61a9136676e594767c5315470a18ba957fbd5bc664736f6c634300080b0033",
  "linkReferences": {},
  "deployedLinkReferences": {}
}